:0400000007EF3DF0D9
:107A0C0042000C0EF66E7A0EF76E000EF86E090040
:107A1C00F5CF36F00900F5CF37F000011EEF3FF03F
:107A2C00A4AA0BD001C0D9FF02C0DAFF74CFDFFFCC
:107A3C00000E026E000E016E120001680268120048
:107A4C00FF0E0324056EFF0E0420066E06BE120008
:107A5C0005500124D96E06500220DA6EDF50AD6E4F
:107A6C0000F09EA8FED70506D8A00606EFD7000E9C
:107A7C00076E000E066E0DD006500124D96E07500D
:107A8C000220DA6EDF50736E00F0A4A8FED7064A0F
:107A9C00072A0750800A056E0350065C0450800AC2
:107AAC000558D8B01200E8D7086E550E096E08506C
:107ABC00000E026E090E016E000E046E010E036EB6
:107ACC003DEC3DF0000E026E0A0E016E16EC3DF020
:107ADC0002500110D8A4F6D70A503A0AD8B41200B2
:107AEC00F1D70AC00FF009C00EF008C00DF007C0A6
:107AFC000CF0000E026E0C0E016E000E046E040EE5
:107B0C00036E26EC3DF00B6E0A0E106E0B5010C07F
:107B1C0001F0026A000E046E010E036E26EC3DF0BD
:107B2C001200000E096E000E0A6E000E0B6E000E97
:107B3C000C6E01A008D00550092606500A220750E9
:107B4C000B2208500C22D89005360636073608361C
:107B5C00D890043203320232013204500110021068
:107B6C000310D8A4E6D709C001F00AC002F00BC07C
:107B7C0003F00CC004F0120001C032F002C033F06C
:107B8C00949C948EB8964D0EAF6EAC84AC98AB8E24
:107B9C00AC9CAB9CAB88AC8A20EE7DF03250D926E5
:107BAC003350DA22000EDF6E20EE7EF03250D926F2
:107BBC003350DA22000EDF6E20EE7FF03250D926E1
:107BCC003350DA22000EDF6E20EE80F03250D926D0
:107BDC003350DA22000EDF6E120001C034F002C006
:107BEC0035F0958E959C70964D0E756E72847298CC
:107BFC00718E729C719C7188728A20EE7DF034506B
:107C0C00D9263550DA22000EDF6E20EE7EF034508D
:107C1C00D9263550DA22000EDF6E20EE7FF034507C
:107C2C00D9263550DA22000EDF6E20EE80F034506B
:107C3C00D9263550DA22000EDF6E120089809C0E98
:107C4C00016ED70EE82EFED7012EFCD79C0E016ECE
:107C5C00D70EE82EFED7012EFCD79C0E016ED70E48
:107C6C00E82EFED7012EFCD79C0E016ED70EE82E07
:107C7C00FED7012EFCD789909C0E016ED70EE82EF4
:107C8C00FED7012EFCD79C0E016ED70EE82EFED728
:107C9C00012EFCD79C0E016ED70EE82EFED7012EBE
:107CAC00FCD79C0E016ED70EE82EFED7012EFCD70A
:107CBC009C0E016ED70EE82EFED7012EFCD71200BB
:107CCC00000E0A6E000E0B6E000E0C6E000E0D6E8A
:107CDC000850051006100710D8B42CD0096E010EF0
:107CEC000E6E095006D0D890053606360736083683
:107CFC000E2A08AEF8D7D8900A360B360C360D364D
:107D0C000550015C0650025807500358085004589F
:107D1C00D8A009D00550015E0650025A0750035AEC
:107D2C000850045A0A80D8900832073206320532BD
:107D3C000E2EE1D70AC001F00BC002F00CC003F00C
:107D4C000DC004F0120036C016F037C017F0000E4C
:107D5C00026E160E016E000E046E010E036E3DECEB
:107D6C003DF0000E126E000E136E000E146E000E1F
:107D7C00156E000E026E160E016E16EC3DF00250E2
:107D8C000110D8A4F6D716501212000E026E160E61
:107D9C00016E16EC3DF002500110D8A4F6D7165027
:107DAC001212000E026E160E016E16EC3DF0025011
:107DBC000110D8A4F6D716500D6E0C6A0CC00EF03C
:107DCC000DC00FF0000E0FBEFF0E106E116E0E5098
:107DDC0012120F5013121050141211501512000ED3
:107DEC00026E160E016E16EC3DF002500110D8A476
:107DFC00F6D716501212000E026E160E016E16EC0D
:107E0C003DF002500110D8A4F6D7000E026E160EEB
:107E1C00016E16EC3DF002500110D8A4F6D712C03A
:107E2C0008F013C009F014C00AF015C00BF01200D2
:107E3C00000E0F010F01386F000E0F010F01396F8B
:107E4C00000E0F010F013A6F000E0F010F013B6F77
:107E5C00000E0F010F013C6F0101010E026E0101BA
:107E6C00000E016EC2EC3DF00101010E026E01012B
:107E7C00000E016EF3EC3DF09290929289925AECC6
:107E8C003DF0A9EC3EF00BC027F00AC026F009C06B
:107E9C0025F008C024F0000E206E000E216E000E9E
:107EAC00226E000E236E000E296E000E286E2950D5
:107EBC00800A800F640ED8B4285CD8B09AD024EC19
:107ECC003EF024EC3EF024C01CF025C01DF026C072
:107EDC001EF027C01FF0A9EC3EF00BC027F00AC023
:107EEC0026F009C025F008C024F01C5024242A6E6A
:107EFC001D5025202B6E1E5026202C6E1F50272027
:107F0C002D6E2AC018F02BC019F02CC01AF02DC001
:107F1C001BF0D8901B321A32193218321BC02DF0BC
:107F2C001AC02CF019C02BF018C02AF02AC001F08E
:107F3C002BC002F02CC003F02DC004F02AC005F0B9
:107F4C002BC006F02CC007F02DC008F097EC3DF0CC
:107F5C0004C031F003C030F002C02FF001C02EF08D
:107F6C002EC001F02FC002F030C003F031C004F07D
:107F7C00100E056E270E066E000E076E000E086EB4
:107F8C0066EC3EF004C031F003C030F002C02FF0BC
:107F9C0001C02EF02EC001F02FC002F030C003F053
:107FAC0031C004F03A0E056E010E066E000E076E1F
:107FBC00000E086E97EC3DF004C031F003C030F0B9
:107FCC0002C02FF001C02EF02E5020262F5021225F
:107FDC00305022223150232220C007F021C008F05B
:107FEC0022C009F023C00AF077EC3DF0284A292A78
:047FFC005ED7FFD776
:020000040020DA
:08000000FFFFFFFFFFFFFFFF00
:020000040030CA
:0E000000FF331F3CFFBD85FF0FC00FE00F4018
:00000001FF
